:100000000C945D000C9485000C9485000C94850084
:100010000C9485000C9485000C9485000C9485004C
:100020000C9485000C9485000C9485000C942F048E
:100030000C9485000C9485000C9485000C9485002C
:100040000C948D030C9485000C94FD030C94D70341
:100050000C9485000C9485000C9485000C9485000C
:100060000C9485000C9485000000000024002700FB
:100070002A0000000000250028002B0004040404CE
:100080000404040402020202020203030303030342
:10009000010204081020408001020408102001021F
:1000A00004081020000000080002010000030407FB
:1000B0000000000000000000F00411241FBECFEF7C
:1000C000D8E0DEBFCDBF22E0A2EEB1E001C01D92BC
:1000D000AD3BB207E1F711E0A0E0B1E0EEEFF5E1F2
:1000E00002C005900D92A23EB107D9F710E0CDE510
:1000F000D0E004C02197FE010E943408CC35D1071E
:10010000C9F70E945B050C94FD0A0C94000090E076
:10011000FC01EC55FF4F3491FC01E057FF4F249157
:10012000FC01E458FF4FE491EE2309F43BC0332374
:1001300039F1333091F038F43130A9F0323001F533
:1001400084B58F7D12C0373091F03830A1F0343053
:10015000B9F4809180008F7D03C0809180008F77FB
:10016000809380000DC084B58F7784BD09C08091D5
:10017000B0008F7703C08091B0008F7D8093B00076
:10018000F0E0EE0FFF1FEE58FF4FA591B4918FB72F
:10019000F894EC91611103C020952E2301C02E2B01
:1001A0002C938FBF08953FB7F894809110029091DF
:1001B0001102A0911202B091130226B5A89B05C0AE
:1001C0002F3F19F00196A11DB11D3FBFBA2FA92FD6
:1001D000982F8827820F911DA11DB11DBC01CD0153
:1001E00042E0660F771F881F991F4A95D1F708953F
:1001F0008F929F92AF92BF92CF92DF92EF92FF9237
:100200006B017C010E94D3004B015C01C114D1043D
:10021000E104F104F1F00E94D300DC01CB01881964
:100220009909AA09BB09883E9340A105B10570F35D
:1002300021E0C21AD108E108F10888EE880E83E0B7
:10024000981EA11CB11CC114D104E104F10419F7DA
:10025000DDCFFF90EF90DF90CF90BF90AF909F9059
:100260008F900895CF92DF92EF92FF920F931F939A
:10027000CF93DF936C017A018B01C0E0D0E0CE1503
:10028000DF0589F0D8016D918D01D601ED91FC91CA
:100290000190F081E02DC6010995892B11F47E01B2
:1002A00002C02196ECCFC701DF91CF911F910F9132
:1002B000FF90EF90DF90CF900895FC01918D828D9B
:1002C000981761F0828DDF01A80FB11D5D968C91AA
:1002D000928D9F5F9F73928F90E008958FEF9FEFB5
:1002E0000895FC01918D828D981731F0828DE80F71
:1002F000F11D858D90E008958FEF9FEF0895FC012B
:10030000918D228D892F90E0805C9F4F821B9109F7
:100310008F739927089584E192E00E947F0121E084
:10032000892B09F420E0822F0895FC01848DDF01E0
:10033000A80FB11DA35ABF4F2C91848D90E0019658
:100340008F739927848FA689B7892C93A089B18947
:100350008C9180648C93938D848D981306C0028851
:10036000F389E02D80818F7D80830895EF92FF9245
:100370000F931F93CF93DF93EC0181E0888F9B8DC8
:100380008C8D981305C0E889F989808185FD24C08A
:10039000F62E0B8D10E00F5F1F4F0F731127E02E0D
:1003A0008C8DE8120CC00FB607FCFACFE889F989EA
:1003B000808185FFF5CFCE010E949501F1CF8B8D15
:1003C000FE01E80FF11DE35AFF4FF0820B8FEA891F
:1003D000FB898081806207C0EE89FF896083E8899C
:1003E000F98980818064808381E090E0DF91CF9102
:1003F0001F910F91FF90EF900895CF93DF93EC0141
:10040000888D8823C9F0EA89FB89808185FD05C034
:10041000A889B9898C9186FD0FC00FB607FCF5CF6E
:10042000808185FFF2CFA889B9898C9185FFEDCFB6
:10043000CE010E949501E7CFDF91CF91089580E032
:1004400090E0892B29F00E948B0181110C9400000F
:100450000895FC0190819C3080F5818128E830E08E
:10046000281B310987FD3395220F331F220F331FBD
:10047000621773077CF0828128E532E0281B31097E
:1004800087FD3395220F331F220F331F6217730727
:100490000CF49B0122503109220F331F4FB7F894FF
:1004A000892F90E0FC01EE0FFF1F8E0F9F1FFC01B4
:1004B000EC51FE4F328321834FBF08952F923F921C
:1004C0004F925F926F927F928F929F92AF92BF9264
:1004D000CF92DF92EF92FF920F931F93CF93DF9310
:1004E00000D000D0CDB7DEB75C014B018A017B01A3
:1004F000612C712CF4EF2F2E33243394AAEACA2EE8
:10050000A5E0DA2E7FEFB8EB4B2EBBE05B2EC701E8
:100510008819990903970CF063C082E190E07A830F
:100520000E9470099C838B83F70161917F01FC011C
:10053000128281E083831682158280E699E090879B
:10054000878332862186D486C386D686C586108A5E
:100550001786118A83E090E069830E9470092091D8
:10056000E20169817A812C3090F431E0320F3093CE
:10057000E201FC01208330E0A901440F551F240F44
:10058000351FF901EC51FE4F5282418202C0FC013D
:100590007083EB81FC81918380836483F801808187
:1005A0009181EB81FC8192878187F801828193811F
:1005B000EB81FC8190878783F80184819581EB81B1
:1005C000FC8194878387F501E60DF71D8B819C8163
:1005D0009183808392E0690E711C0A5F1F4F97CF51
:1005E0000F900F900F900F90DF91CF911F910F916F
:1005F000FF90EF90DF90CF90BF90AF909F908F9043
:100600007F906F905F904F903F902F90089500974C
:1006100069F0FC0101900020E9F73197AF01481B18
:10062000590BBC0184E192E00C94320180E090E02F
:1006300008958F929F92AF92BF920F931F93CF9383
:10064000DF93CDB7DEB7A1970FB6F894DEBF0FBE2C
:10065000CDBF19A2423008F44AE08E010F5D1F4F52
:10066000842E912CA12CB12CA50194010E94CC0ABE
:10067000E62FB901CA0101501109EA3014F4E05D16
:1006800001C0E95CD801EC93232B242B252B61F7C7
:10069000C8010E940703A1960FB6F894DEBF0FBEF3
:1006A000CDBFDF91CF911F910F91BF90AF909F90E1
:1006B0008F900895CF92DF92EF92FF92CF93DF93C6
:1006C0006B017C01E0911402F09115020190F08120
:1006D000E02D6DE284E192E00995EC016627772731
:1006E000CB016C197D098E099F094AE00E9419030C
:1006F0008C0F9D1FDF91CF91FF90EF90DF90CF90F7
:100700000895BC01990F880B990B97FD0C945A031F
:100710004AE00C9419030E949D0A1F920F920FB693
:100720000F9211242F933F938F939F93AF93BF9377
:1007300080910C0290910D02A0910E02B0910F02D7
:1007400030910B0223E0230F2D3720F40196A11DD9
:10075000B11D05C026E8230F0296A11DB11D2093EF
:100760000B0280930C0290930D02A0930E02B093A3
:100770000F028091100290911102A0911202B0918B
:1007800013020196A11DB11D8093100290931102D6
:10079000A0931202B0931302BF91AF919F918F91DA
:1007A0003F912F910F900FBE0F901F9018951F92A1
:1007B0000F920FB60F9211242F933F934F935F9395
:1007C0006F937F938F939F93AF93BF93EF93FF9319
:1007D00084E192E00E949501FF91EF91BF91AF916A
:1007E0009F918F917F916F915F914F913F912F9149
:1007F0000F900FBE0F901F9018951F920F920FB67B
:100800000F9211242F938F939F93EF93FF93E09177
:100810002402F09125028081E0912A02F0912B02BE
:1008200082FD12C0908180912D028F5F8F73209185
:100830002E02821751F0E0912D02F0E0EC5EFD4FA8
:10084000958F80932D0201C08081FF91EF919F9140
:100850008F912F910F900FBE0F901F9018951F92A0
:100860000F920FB60F9211242F933F934F935F93E4
:100870006F937F938F939F93AF93BF93EF93FF9368
:100880008091E30187FF05C01092850010928400DB
:100890001BC02091E301022E000C330B8091E2017A
:1008A00090E02817390784F48091E301082E000CAA
:1008B000990BFC01EE0FFF1F8E0F9F1FFC01EC51E7
:1008C000FE4F808186FD15C08091E3018F5F80938C
:1008D000E3012091E301022E000C330B8091E20131
:1008E00090E028173907C4F48091E3018C3064F15B
:1008F00013C08091E301082E000C990BFC01EE0F50
:10090000FF1F8E0F9F1FFC01EC51FE4F808160E0A6
:100910008F730E948700D8CF8091840090918500CA
:10092000049680349C4918F480E49CE905C08091C9
:1009300084009091850004969093890080938800AC
:100940008FEF8093E3013BC02091840030918500BC
:100950008091E301082E000C990BFC01EE0FFF1FA4
:100960008E0F9F1FFC01EC51FE4F81819281820FFF
:10097000931F90938900809388008091E301082E53
:10098000000C990BFC01EE0FFF1F8E0F9F1FFC0147
:10099000EC51FE4F808186FF12C08091E301082E4A
:1009A000000C990BFC01EE0FFF1F8E0F9F1FFC0127
:1009B000EC51FE4F808161E08F730E948700FF91B0
:1009C000EF91BF91AF919F918F917F916F915F91C7
:1009D0004F913F912F910F900FBE0F901F90189540
:1009E0000F931F93CF93DF93E4E1F2E0138212821F
:1009F00088EE93E0A0E0B0E084839583A683B7837C
:100A000086E591E09183808385EC90E095878487EB
:100A100084EC90E09787868780EC90E0918B808BC8
:100A200081EC90E0938B828B82EC90E0958B848BB1
:100A300086EC90E0978B868B118E128E138E148E1F
:100A400086E090E00E9470098C0141EA51E063EB7E
:100A500071E00E945E02C1EBD2E01983088386E058
:100A600090E00E9470098C014CE851E06EE971E061
:100A70000E945E021B830A8386E090E00E94700958
:100A80008C0147E751E069E871E00E945E021D8336
:100A90000C8386E090E00E9470098C0142E651E0F0
:100AA00064E771E00E945E021F830E83DF91CF91A5
:100AB0001F910F910895CF93DF93CDB7DEB72A979B
:100AC0000FB6F894DEBF0FBECDBF789484B58260B8
:100AD00084BD84B5816084BD85B5826085BD85B5E2
:100AE000816085BD80916E00816080936E00109260
:100AF00081008091810082608093810080918100DB
:100B0000816080938100809180008160809380006B
:100B10008091B10084608093B1008091B0008160C9
:100B20008093B00080917A00846080937A008091F5
:100B30007A00826080937A0080917A00816080934D
:100B40007A0080917A00806880937A001092C100C8
:100B5000E0912402F091250282E08083E09120025E
:100B6000F09121021082E0912202F091230280E1B3
:100B7000808310922C02E0912802F091290286E0F5
:100B80008083E0912602F09127028081806180833A
:100B9000E0912602F0912702808188608083E091B5
:100BA0002602F0912702808180688083E0912602EE
:100BB000F091270280818F7D808371EBE72E72E0B8
:100BC000F72EECE0DE2EF2E0CF2ED7010D911D9135
:100BD0007D01412C512CE3E04E1651040CF08EC0E7
:100BE000D801ED91FC914481A081B1818C918C3030
:100BF00008F06DC0842F90E0FC01E057FF4F549146
:100C0000FC01E458FF4F84918823A1F090E0880F05
:100C1000991FFC01E859FF4F259134918E589F4F41
:100C2000FC01859194918FB7F894F9019081592B2B
:100C300050838FBF8C91E82FF0E09F01220F331F6C
:100C4000E20FF31FEC51FE4F4F739081907C492BC4
:100C5000408311961C92119712961C9212976D2D3B
:100C60000E942808FCE08F9FB001112440E050E072
:100C70009A01260F371FF901EE0FFF1F2E0F3F1F9E
:100C8000F901EC51FE4F908196FD15C04F5F5F4F0B
:100C90004C30510569F781110EC010928000C0924E
:100CA00081001092850010928400B19A80916F00AB
:100CB000826080936F00EC91F0E0CF01880F991F64
:100CC000E80FF91FEC51FE4F808180648083D801CA
:100CD0008D909D908D01F401638474847682658289
:100CE000B301808191810E942902D4011E967C92D9
:100CF0006E921D97BFEF4B1A5B0A6DCFF9EBEF16A3
:100D0000F2E0FF0609F061CF64E670E080E090E079
:100D10000E94F80086EB91E00E94070382ED91E0CB
:100D20000E94070301EB12E0C12CD12C85ED91E06C
:100D30000E940703C6010E9481038BED91E00E948F
:100D400007037801D801ED91FC910190F081E02D2D
:100D5000858596850E9481038FED91E00E940703AF
:100D6000D801ED91FD918D010190F081E02D8581FB
:100D700096810E9481038FED91E00E940703D701C5
:100D8000ED91FC910190F081E02D67857089072E2F
:100D9000000C880B990B97FF03C00E945A0303C0F5
:100DA0004AE00E94190382ED91E00E940703BFEF21
:100DB000CB1ADB0AE4E0CE16D10409F0B7CF80915C
:100DC0000A02811140C1E1EBF2E04191519180E0D2
:100DD00090E020E030E083309105B4F4DA01A20F16
:100DE000B31F0D90BC91A02D2E5F3F4F1D960D910E
:100DF0001C911E9715966D917C91169706171707F3
:100E000009F0B9C00196E7CF22E0E93BF207E9F625
:100E10008091080290910902069724F0109209022D
:100E20001092080280900802909009028CE0889D40
:100E30005001899DB00C112421EB32E03A832983C3
:100E400000E010E0C8018A0D9B1DAC01465F5E4FBB
:100E50005C834B83A981BA81ED90FD90BA83A9830D
:100E60001701B8E02B0E311CEB81FC81A191FC83B2
:100E7000EB83F701219131917F013A872987F901AD
:100E8000C584D684128221E02383218532852901FD
:100E9000330F66087708A53608F0A4E6E985FA85D9
:100EA00027813085A901330F660B770B9A01AB01BF
:100EB0002419350946095709B0E00E94C10A24E601
:100EC00030E040E050E00E94A20A420E531E641E31
:100ED000751EA2014C195D09CA0157FF04C088277D
:100EE0009927841B950B4817590709F4AFC02FEFBA
:100EF000A985BA8516965C924E921597C22E220F3E
:100F0000DD08B4E1B89FB001B99F700D1124072E20
:100F1000000C880B990B0E94E40820E030E048ECBC
:100F200052E40E943A080E94AC086A30710514F439
:100F30006AE070E0C69EC001C79E900DD69E900DDF
:100F40001124E985FA85908B8787E214F30409F070
:100F50008BCF0D5F1F4F0C30110509F073CF64EF7D
:100F600071E080E090E00E94F800C4010196909347
:100F700009028093080281EBC82E82E0D82ED601A8
:100F8000ED90FD906D014701B6E08B0E911CF701CD
:100F9000619071907F01D30112968C91129781110B
:100FA00042C01D968D919C911E9715962D913C9156
:100FB000169782179307B9F11F964D915C91509740
:100FC0008C01040F151F1416150624F42017310781
:100FD000DCF005C0452B19F002171307ACF0081719
:100FE000190791F0F3011382B801808191810E9469
:100FF0002902D3011E961C930E931D976AE070E0A0
:1010000080E090E00E94F800F30125853685858117
:1010100096812817390731F4108A1786128221E049
:10102000238301C01382E814F90409F0B0CF65E00E
:1010300070E080E090E00E94F800B9EBCB16B2E0DF
:10104000DB0609F09CCF0E941F02B9CE21E050CFF1
:10105000991B79E004C0991F961708F0961B881F0A
:101060007A95C9F780950895EE0FFF1F0590F491CA
:10107000E02D09940E944E080C9436090E942F0915
:1010800058F00E94280940F029F45F3F29F00C94A1
:101090001F0951110C946A090C9425090E944709F3
:1010A00068F39923B1F3552391F3951B550BBB2797
:1010B000AA2762177307840738F09F5F5F4F220FDC
:1010C000331F441FAA1FA9F335D00E2E3AF0E0E8D3
:1010D00032D091505040E695001CCAF72BD0FE2F1D
:1010E00029D0660F771F881FBB1F261737074807B1
:1010F000AB07B0E809F0BB0B802DBF01FF27935869
:101100005F4F3AF09E3F510578F00C941F090C9404
:101110006A095F3FE4F3983ED4F386957795679527
:10112000B795F7959F5FC9F7880F911D969587959D
:1011300097F90895E1E0660F771F881FBB1F6217BC
:1011400073078407BA0720F0621B730B840BBA0B7A
:10115000EE1F88F7E09508950E94B3086894B111D6
:101160000C946A0908950E944F0988F09F5798F0DF
:10117000B92F9927B751B0F0E1F0660F771F881F9C
:10118000991F1AF0BA95C9F714C0B13091F00E94B6
:101190006909B1E008950C946909672F782F8827B1
:1011A000B85F39F0B93FCCF3869577956795B395DD
:1011B000D9F73EF490958095709561957F4F8F4F4C
:1011C0009F4F0895E89409C097FB3EF49095809551
:1011D000709561957F4F8F4F9F4F9923A9F0F92FFD
:1011E00096E9BB279395F695879577956795B7957B
:1011F000F111F8CFFAF4BB0F11F460FF1BC06F5F61
:101200007F4F8F4F9F4F16C0882311F096E911C072
:10121000772321F09EE8872F762F05C0662371F093
:1012200096E8862F70E060E02AF09A95660F771FA7
:10123000881FDAF7880F9695879597F9089597F99B
:101240009F6780E870E060E008959FEF80EC08956C
:1012500000240A9416161706180609060895002495
:101260000A9412161306140605060895092E03940F
:10127000000C11F4882352F0BB0F40F4BF2B11F483
:1012800060FF04C06F5F7F4F8F4F9F4F089557FDE2
:101290009058440F551F59F05F3F71F04795880FE4
:1012A00097FB991F61F09F3F79F08795089512167B
:1012B00013061406551FF2CF4695F1DF08C0161627
:1012C00017061806991FF1CF8695710561050894D8
:1012D0000895E894BB2766277727CB0197F90895EF
:1012E000CF93DF938230910510F482E090E0E0919B
:1012F000BB02F091BC0220E030E0C0E0D0E03097CB
:1013000011F14081518148175907C0F0481759071A
:1013100061F482819381209719F09B838A832BC08B
:101320009093BC028093BB0226C02115310519F0B1
:101330004217530718F49A01BE01DF01EF01028042
:10134000F381E02DDCCF2115310509F1281B390B84
:101350002430310590F412968D919C91139761156C
:10136000710521F0FB019383828304C09093BC023A
:101370008093BB02FD01329644C0FD01E20FF31FD2
:1013800081939193225031092D933C933AC020913F
:10139000B9023091BA02232B41F42091020130911D
:1013A00003013093BA022093B902209100013091D9
:1013B00001012115310541F42DB73EB740910401DB
:1013C00050910501241B350BE091B902F091BA024E
:1013D000E217F307A0F42E1B3F0B2817390778F00C
:1013E000AC014E5F5F4F2417350748F04E0F5F1F6B
:1013F0005093BA024093B9028193919302C0E0E006
:10140000F0E0CF01DF91CF9108950F931F93CF9319
:10141000DF93009709F48CC0FC013297138212828B
:101420000091BB021091BC020115110581F42081CD
:101430003181820F931F2091B9023091BA0228178F
:10144000390779F5F093BA02E093B90271C0D80177
:1014500040E050E0AE17BF0750F412962D913C913A
:101460001397AD012115310509F1D901F3CF9D0184
:10147000DA013383228360817181860F971F82177F
:10148000930769F4EC0128813981260F371F2E5FFD
:101490003F4F318320838A819B8193838283452BB5
:1014A00029F4F093BC02E093BB0242C01396FC9374
:1014B000EE931297ED01499159919E01240F351F2A
:1014C000E217F30771F480819181840F951F0296D2
:1014D00011969C938E938281938113969C938E9305
:1014E0001297E0E0F0E0D80112968D919C9113974D
:1014F000009719F0F8018C01F6CF8D919C9198011D
:101500002E5F3F4F820F931F2091B9023091BA0294
:101510002817390769F4309729F41092BC02109209
:10152000BB0202C0138212821093BA020093B90266
:10153000DF91CF911F910F91089581E090E0F89491
:101540000C94FD0A052E97FB1EF400940E94B90A24
:1015500057FD07D00E94CC0A07FC03D04EF40C9430
:10156000B90A50954095309521953F4F4F4F5F4FA9
:10157000089590958095709561957F4F8F4F9F4FFF
:1015800008950E94EE0AA59F900DB49F900DA49F10
:10159000800D911D11240895A1E21A2EAA1BBB1BD8
:1015A000FD010DC0AA1FBB1FEE1FFF1FA217B3072F
:1015B000E407F50720F0A21BB30BE40BF50B661F45
:1015C000771F881F991F1A9469F760957095809509
:1015D00090959B01AC01BD01CF010895A29FB00180
:1015E000B39FC001A39F700D811D1124911DB29F57
:0E15F000700D811D1124911D0895F894FFCFF8
:1015FE000000BD028000010000000000000000009D
:10160E00000000000000B40000B40000B40000B4FC
:10161E0000005A00005A00005A00005A0000000054
:10162E0000B40000000000B40000B4000000000090
:10163E00B400000000005A00005A00005A00005A80
:10164E00000000000000B60132017F015D01710152
:10165E00FD010807E8037805D606B6034605D6064B
:10166E00B60346050B0C0D1A043A07AA05E8030843
:10167E00077805E8030807780508090AD606B603B1
:10168E004605D606B6034605D606B6034605050636
:10169E0007B004D0074006B004D0074006B004D00F
:1016AE000740060203042D2D2D2D2D2D2D2D2D2D14
:1016BE002D2D2D2D2D2D2D2D2D2D2D2D2D2D2D2D4C
:1016CE002D000D0A004C65673A2000203D20002CAD
:0216DE002000EA
:00000001FF
